{
  "_format": "hh-sol-artifact-1",
  "contractName": "Tronadz",
  "sourceName": "contracts/Tronadz.sol",
  "abi": [
    {
      "inputs": [
        {
          "internalType": "address",
          "name": "_owner",
          "type": "address"
        },
        {
          "internalType": "address",
          "name": "_masterAccount",
          "type": "address"
        }
      ],
      "stateMutability": "nonpayable",
      "type": "constructor"
    },
    {
      "anonymous": false,
      "inputs": [
        {
          "indexed": true,
          "internalType": "address",
          "name": "_playerAddress",
          "type": "address"
        },
        {
          "indexed": true,
          "internalType": "uint256",
          "name": "_amount",
          "type": "uint256"
        }
      ],
      "name": "investmentEvent",
      "type": "event"
    },
    {
      "anonymous": false,
      "inputs": [
        {
          "indexed": true,
          "internalType": "address",
          "name": "_playerAddress",
          "type": "address"
        },
        {
          "indexed": true,
          "internalType": "uint256",
          "name": "_amount",
          "type": "uint256"
        },
        {
          "indexed": false,
          "internalType": "uint256",
          "name": "_investedAmount",
          "type": "uint256"
        }
      ],
      "name": "premiumInvestmentEvent",
      "type": "event"
    },
    {
      "anonymous": false,
      "inputs": [
        {
          "indexed": true,
          "internalType": "address",
          "name": "_playerAddress",
          "type": "address"
        },
        {
          "indexed": true,
          "internalType": "address",
          "name": "_referrer",
          "type": "address"
        },
        {
          "indexed": true,
          "internalType": "uint256",
          "name": "amount",
          "type": "uint256"
        },
        {
          "indexed": false,
          "internalType": "uint256",
          "name": "timeStamp",
          "type": "uint256"
        }
      ],
      "name": "premiumReferralCommissionEvent",
      "type": "event"
    },
    {
      "anonymous": false,
      "inputs": [
        {
          "indexed": true,
          "internalType": "address",
          "name": "_playerAddress",
          "type": "address"
        },
        {
          "indexed": true,
          "internalType": "address",
          "name": "_referrer",
          "type": "address"
        },
        {
          "indexed": true,
          "internalType": "uint256",
          "name": "amount",
          "type": "uint256"
        },
        {
          "indexed": false,
          "internalType": "uint256",
          "name": "_type",
          "type": "uint256"
        }
      ],
      "name": "referralCommissionEvent",
      "type": "event"
    },
    {
      "anonymous": false,
      "inputs": [
        {
          "indexed": true,
          "internalType": "address",
          "name": "_playerAddress",
          "type": "address"
        },
        {
          "indexed": true,
          "internalType": "address",
          "name": "_referrer",
          "type": "address"
        }
      ],
      "name": "registerUserEvent",
      "type": "event"
    },
    {
      "anonymous": false,
      "inputs": [
        {
          "indexed": true,
          "internalType": "address",
          "name": "_playerAddress",
          "type": "address"
        },
        {
          "indexed": true,
          "internalType": "uint256",
          "name": "_amount",
          "type": "uint256"
        }
      ],
      "name": "roundAwardsEvent",
      "type": "event"
    },
    {
      "anonymous": false,
      "inputs": [
        {
          "indexed": true,
          "internalType": "address",
          "name": "_playerAddress",
          "type": "address"
        },
        {
          "indexed": true,
          "internalType": "uint256",
          "name": "amount",
          "type": "uint256"
        },
        {
          "indexed": true,
          "internalType": "uint256",
          "name": "timeStamp",
          "type": "uint256"
        }
      ],
      "name": "whaleAwardEvent",
      "type": "event"
    },
    {
      "anonymous": false,
      "inputs": [
        {
          "indexed": true,
          "internalType": "address",
          "name": "_playerAddress",
          "type": "address"
        },
        {
          "indexed": true,
          "internalType": "uint256",
          "name": "amount",
          "type": "uint256"
        },
        {
          "indexed": true,
          "internalType": "uint256",
          "name": "timeStamp",
          "type": "uint256"
        }
      ],
      "name": "withdrawEvent",
      "type": "event"
    },
    {
      "inputs": [
        {
          "internalType": "uint256",
          "name": "",
          "type": "uint256"
        }
      ],
      "name": "CYCLE_LIMIT",
      "outputs": [
        {
          "internalType": "uint256",
          "name": "",
          "type": "uint256"
        }
      ],
      "stateMutability": "view",
      "type": "function"
    },
    {
      "inputs": [],
      "name": "currUserID",
      "outputs": [
        {
          "internalType": "uint256",
          "name": "",
          "type": "uint256"
        }
      ],
      "stateMutability": "view",
      "type": "function"
    },
    {
      "inputs": [],
      "name": "drawPool",
      "outputs": [],
      "stateMutability": "nonpayable",
      "type": "function"
    },
    {
      "inputs": [
        {
          "internalType": "address",
          "name": "_addr",
          "type": "address"
        }
      ],
      "name": "isUser",
      "outputs": [
        {
          "internalType": "bool",
          "name": "",
          "type": "bool"
        }
      ],
      "stateMutability": "view",
      "type": "function"
    },
    {
      "inputs": [
        {
          "internalType": "address",
          "name": "",
          "type": "address"
        }
      ],
      "name": "isWhale",
      "outputs": [
        {
          "internalType": "bool",
          "name": "",
          "type": "bool"
        }
      ],
      "stateMutability": "view",
      "type": "function"
    },
    {
      "inputs": [
        {
          "internalType": "uint256",
          "name": "",
          "type": "uint256"
        }
      ],
      "name": "lastTopSponsors",
      "outputs": [
        {
          "internalType": "uint256",
          "name": "amt",
          "type": "uint256"
        },
        {
          "internalType": "address",
          "name": "addr",
          "type": "address"
        }
      ],
      "stateMutability": "view",
      "type": "function"
    },
    {
      "inputs": [
        {
          "internalType": "uint256",
          "name": "",
          "type": "uint256"
        }
      ],
      "name": "lastTopSponsorsWinningAmount",
      "outputs": [
        {
          "internalType": "uint256",
          "name": "",
          "type": "uint256"
        }
      ],
      "stateMutability": "view",
      "type": "function"
    },
    {
      "inputs": [],
      "name": "masterAccount",
      "outputs": [
        {
          "internalType": "address",
          "name": "",
          "type": "address"
        }
      ],
      "stateMutability": "view",
      "type": "function"
    },
    {
      "inputs": [],
      "name": "owner",
      "outputs": [
        {
          "internalType": "address",
          "name": "",
          "type": "address"
        }
      ],
      "stateMutability": "view",
      "type": "function"
    },
    {
      "inputs": [
        {
          "internalType": "address",
          "name": "_addr",
          "type": "address"
        }
      ],
      "name": "payoutOf",
      "outputs": [
        {
          "internalType": "uint256",
          "name": "payout",
          "type": "uint256"
        }
      ],
      "stateMutability": "view",
      "type": "function"
    },
    {
      "inputs": [
        {
          "internalType": "address",
          "name": "",
          "type": "address"
        }
      ],
      "name": "player",
      "outputs": [
        {
          "internalType": "uint256",
          "name": "id",
          "type": "uint256"
        },
        {
          "internalType": "uint256",
          "name": "totalInvestment",
          "type": "uint256"
        },
        {
          "internalType": "uint256",
          "name": "directsIncome",
          "type": "uint256"
        },
        {
          "internalType": "uint256",
          "name": "roiReferralIncome",
          "type": "uint256"
        },
        {
          "internalType": "uint256",
          "name": "currInvestment",
          "type": "uint256"
        },
        {
          "internalType": "uint256",
          "name": "dailyIncome",
          "type": "uint256"
        },
        {
          "internalType": "uint256",
          "name": "depositTime",
          "type": "uint256"
        },
        {
          "internalType": "uint256",
          "name": "incomeLimitLeft",
          "type": "uint256"
        },
        {
          "internalType": "uint256",
          "name": "sponsorPoolIncome",
          "type": "uint256"
        },
        {
          "internalType": "uint256",
          "name": "referralCount",
          "type": "uint256"
        },
        {
          "internalType": "address",
          "name": "referrer",
          "type": "address"
        },
        {
          "internalType": "uint256",
          "name": "cycle",
          "type": "uint256"
        },
        {
          "internalType": "uint256",
          "name": "whalepoolAward",
          "type": "uint256"
        },
        {
          "internalType": "uint256",
          "name": "premiumReferralIncome",
          "type": "uint256"
        }
      ],
      "stateMutability": "view",
      "type": "function"
    },
    {
      "inputs": [
        {
          "internalType": "address",
          "name": "",
          "type": "address"
        }
      ],
      "name": "playerTotEarnings",
      "outputs": [
        {
          "internalType": "uint256",
          "name": "",
          "type": "uint256"
        }
      ],
      "stateMutability": "view",
      "type": "function"
    },
    {
      "inputs": [
        {
          "internalType": "address",
          "name": "",
          "type": "address"
        },
        {
          "internalType": "uint256",
          "name": "",
          "type": "uint256"
        }
      ],
      "name": "plyrRnds_",
      "outputs": [
        {
          "internalType": "uint256",
          "name": "ethVolume",
          "type": "uint256"
        }
      ],
      "stateMutability": "view",
      "type": "function"
    },
    {
      "inputs": [],
      "name": "premiumInvestment",
      "outputs": [],
      "stateMutability": "payable",
      "type": "function"
    },
    {
      "inputs": [
        {
          "internalType": "uint256",
          "name": "_referrerID",
          "type": "uint256"
        }
      ],
      "name": "registerUser",
      "outputs": [],
      "stateMutability": "payable",
      "type": "function"
    },
    {
      "inputs": [
        {
          "internalType": "uint256",
          "name": "",
          "type": "uint256"
        }
      ],
      "name": "round",
      "outputs": [
        {
          "internalType": "uint256",
          "name": "startTime",
          "type": "uint256"
        },
        {
          "internalType": "uint256",
          "name": "endTime",
          "type": "uint256"
        },
        {
          "internalType": "bool",
          "name": "ended",
          "type": "bool"
        },
        {
          "internalType": "uint256",
          "name": "pool",
          "type": "uint256"
        },
        {
          "internalType": "uint256",
          "name": "whalepool",
          "type": "uint256"
        }
      ],
      "stateMutability": "view",
      "type": "function"
    },
    {
      "inputs": [],
      "name": "roundID",
      "outputs": [
        {
          "internalType": "uint256",
          "name": "",
          "type": "uint256"
        }
      ],
      "stateMutability": "view",
      "type": "function"
    },
    {
      "inputs": [
        {
          "internalType": "uint256",
          "name": "",
          "type": "uint256"
        }
      ],
      "name": "topSponsors",
      "outputs": [
        {
          "internalType": "uint256",
          "name": "amt",
          "type": "uint256"
        },
        {
          "internalType": "address",
          "name": "addr",
          "type": "address"
        }
      ],
      "stateMutability": "view",
      "type": "function"
    },
    {
      "inputs": [],
      "name": "total_withdraw",
      "outputs": [
        {
          "internalType": "uint256",
          "name": "",
          "type": "uint256"
        }
      ],
      "stateMutability": "view",
      "type": "function"
    },
    {
      "inputs": [
        {
          "internalType": "address",
          "name": "_newOwner",
          "type": "address"
        }
      ],
      "name": "transferOwnership",
      "outputs": [],
      "stateMutability": "nonpayable",
      "type": "function"
    },
    {
      "inputs": [
        {
          "internalType": "address",
          "name": "_masterAccount",
          "type": "address"
        }
      ],
      "name": "updateMasterAccount",
      "outputs": [],
      "stateMutability": "nonpayable",
      "type": "function"
    },
    {
      "inputs": [
        {
          "internalType": "uint256",
          "name": "",
          "type": "uint256"
        }
      ],
      "name": "userList",
      "outputs": [
        {
          "internalType": "address",
          "name": "",
          "type": "address"
        }
      ],
      "stateMutability": "view",
      "type": "function"
    },
    {
      "inputs": [
        {
          "internalType": "uint256",
          "name": "",
          "type": "uint256"
        }
      ],
      "name": "whales",
      "outputs": [
        {
          "internalType": "address",
          "name": "",
          "type": "address"
        }
      ],
      "stateMutability": "view",
      "type": "function"
    },
    {
      "inputs": [],
      "name": "withdrawEarnings",
      "outputs": [],
      "stateMutability": "nonpayable",
      "type": "function"
    },
    {
      "inputs": [],
      "name": "withdrawStuckTron",
      "outputs": [],
      "stateMutability": "nonpayable",
      "type": "function"
    }
  ],
  "bytecode": "0x608060405260056002556201518060035560056004556001600555601e600655600a60075534801561003057600080fd5b50604051612df6380380612df683398101604081905261004f9161021c565b600080546001600160a01b038085166001600160a01b03199283161783556001805491851691909216178155600981905590526027602052427fb6915e519d5f9dd23c62986e48578ddfa8cde5c92608222904fd87ad04df4ffd8190556003546100b891610265565b7fb6915e519d5f9dd23c62986e48578ddfa8cde5c92608222904fd87ad04df4ffe556028600b55601e600c556014600d55600a600e8190556000808255602460205264174876e8007fbbbb3b1da0cb0951f34c5e9db4606f934b7367b5284f29163e9e6fe67e1e97d655643a352944007f47bb5529a97e2b401b32950f6360fbc9e3f4e70b887dc0f9b9ad1f7402ca11da5564e8d4a510007f8a6809e43cef135a96df89aa3c0800baae7c497913adf6156625c15a6f57cdf05560048152650246139ca8007fe0059098054d65c76a17a4d86f8572395c4d366a1d067b0643b918330bac9e155590816101aa8161027e565b9091555050600a54600180546001600160a01b0390811660009081526028602090815260408083208690559354948252602690529190912080546001600160a01b03191692909116919091179055506102979050565b80516001600160a01b038116811461021757600080fd5b919050565b6000806040838503121561022f57600080fd5b61023883610200565b915061024660208401610200565b90509250929050565b634e487b7160e01b600052601160045260246000fd5b808201808211156102785761027861024f565b92915050565b6000600182016102905761029061024f565b5060010190565b612b50806102a66000396000f3fe6080604052600436106101665760003560e01c80638da5cb5b116100d1578063afcae6961161008a578063d6d0037511610064578063d6d00375146105bc578063e7204ffb146105dc578063eb1d2d40146105f1578063f2fde38b1461061157600080fd5b8063afcae6961461055a578063b73c6ce914610587578063d4841d5e1461059c57600080fd5b80638da5cb5b146104705780638ef1e259146104a85780639a8318f4146104d85780639afd453c146104ee5780639f4216e81461050e578063a4bb170d1461054457600080fd5b80634209fff1116101235780634209fff114610298578063452b381d146102e05780634c54e1b5146103185780635336c53c1461041b5780635920a2cb146104305780636da61d1e1461045057600080fd5b80630910bbeb1461016b57806314f8b424146101755780631bbfae0e1461019e57806334d5f37b146101b157806336bfa47b1461022e5780633ca45fa91461026b575b600080fd5b610173610631565b005b34801561018157600080fd5b5061018b60095481565b6040519081526020015b60405180910390f35b6101736101ac366004612955565b6106df565b3480156101bd57600080fd5b506101ff6101cc366004612955565b602760205260009081526040902080546001820154600283015460038401546004909401549293919260ff909116919085565b604051610195959493929190948552602085019390935290151560408401526060830152608082015260a00190565b34801561023a57600080fd5b5061024e610249366004612955565b610e9a565b604080519283526001600160a01b03909116602083015201610195565b34801561027757600080fd5b5061018b610286366004612955565b60246020526000908152604090205481565b3480156102a457600080fd5b506102d06102b336600461298a565b6001600160a01b0316600090815260286020526040902054151590565b6040519015158152602001610195565b3480156102ec57600080fd5b5061018b6102fb3660046129a5565b602a60209081526000928352604080842090915290825290205481565b34801561032457600080fd5b506103aa61033336600461298a565b602860205260009081526040902080546001820154600283015460038401546004850154600586015460068701546007880154600889015460098a0154600a8b0154600b8c0154600c8d0154600d909d01549b9c9a9b999a98999798969795969495939492936001600160a01b039092169290918e565b604080519e8f5260208f019d909d529b8d019a909a5260608c019890985260808b019690965260a08a019490945260c089019290925260e08801526101008701526101208601526001600160a01b03166101408501526101608401526101808301526101a08201526101c001610195565b34801561042757600080fd5b50610173610ec5565b34801561043c57600080fd5b5061017361044b36600461298a565b610f2c565b34801561045c57600080fd5b5061018b61046b36600461298a565b610f78565b34801561047c57600080fd5b50600054610490906001600160a01b031681565b6040516001600160a01b039091168152602001610195565b3480156104b457600080fd5b506102d06104c336600461298a565b60256020526000908152604090205460ff1681565b3480156104e457600080fd5b5061018b60085481565b3480156104fa57600080fd5b50600154610490906001600160a01b031681565b34801561051a57600080fd5b50610490610529366004612955565b6026602052600090815260409020546001600160a01b031681565b34801561055057600080fd5b5061018b600a5481565b34801561056657600080fd5b5061018b61057536600461298a565b60296020526000908152604090205481565b34801561059357600080fd5b5061017361104f565b3480156105a857600080fd5b5061024e6105b7366004612955565b611680565b3480156105c857600080fd5b5061018b6105d7366004612955565b611690565b3480156105e857600080fd5b506101736116a7565b3480156105fd57600080fd5b5061049061060c366004612955565b6116db565b34801561061d57600080fd5b5061017361062c36600461298a565b611705565b3461063c3382611751565b6000546001600160a01b0316806108fc610662606461065c866005611954565b906119df565b6040518115909202916000818181858888f1935050505015801561068a573d6000803e3d6000fd5b5033600081815260286020526040908190206004015490518492917fe32e4629df2fde6cbd455c3eaa5663f63cb745d20d5943301b96f3aa806ea40b916106d391815260200190565b60405180910390a35050565b346305f5e1008110156107485760405162461bcd60e51b815260206004820152602660248201527f4d696e696d756d20636f6e747269627574696f6e20616d6f756e7420697320316044820152650606040a8a4b60d31b60648201526084015b60405180910390fd5b346107576305f5e100826129e5565b156107a45760405162461bcd60e51b815260206004820152601b60248201527f6d756c7469706c6573206f66203130302054525820706c656173650000000000604482015260640161073f565b6000831180156107b65750600a548311155b6107fa5760405162461bcd60e51b8152602060048201526015602482015274125b98dbdc9c9958dd08149959995c9c995c881251605a1b604482015260640161073f565b6000838152602660209081526040808320543384526028909252909120546001600160a01b03909116903490610a1d57600160005260246020527fbbbb3b1da0cb0951f34c5e9db4606f934b7367b5284f29163e9e6fe67e1e97d6548111156108a55760405162461bcd60e51b815260206004820152601e60248201527f43616e27742073656e64206d6f7265207468616e20746865206c696d69740000604482015260640161073f565b600a80549060006108b583612a0f565b9091555050600a5433600090815260286020526040902090815542600680830191909155600490910182905560075490546108f6919061065c908490611954565b33600081815260286020818152604080842060078101969096556001808701889055600a80880180546001600160a01b038c166001600160a01b03199182168117909255600b9099018390559054865260268452828620805490981690961790965593835252206009015461096a91611a21565b6001600160a01b0383166000908152602860209081526040808320600990810194909455602a82528083209354835292905220546109a89082611a21565b6001600160a01b0383166000908152602a6020908152604080832060095484529091529020556109d782611a80565b506109e23382611e70565b6040516001600160a01b0383169033907fddb5b955685e49590bf27ea3575cf7aea7a942422afa776dba9c6fd4ff3e655a90600090a3610d30565b336000908152602860205260409020600b0154610a3b906001611a21565b336000908152602860205260409020600b8101919091556007015415610aa35760405162461bcd60e51b815260206004820152601860248201527f6c696d6974206973207374696c6c2072656d61696e696e670000000000000000604482015260640161073f565b33600090815260286020526040902060040154650246139ca80090610ac9906002611954565b1015610af25733600090815260286020526040902060040154610aed906002611954565b610afa565b650246139ca8005b811015610b0657600080fd5b336000908152602860205260408120600b015460249190600410610b3c57336000908152602860205260409020600b0154610b3f565b60045b815260200190815260200160002054811115610b9d5760405162461bcd60e51b815260206004820152601a60248201527f506c656173652073656e6420636f727265637420616d6f756e74000000000000604482015260640161073f565b336000908152602860205260409020600a01546001600160a01b03169150650246139ca800819003610c56573360009081526025602052604081205460ff1615159003610c2c576025602052602380546001810182556000919091527fd57b2b5166478fd4318d2acc6cc2c704584312bdd8781b32d5d06abda57f42300180546001600160a01b031916331790555b600754610c3e9061065c836014611954565b33600090815260286020526040902060070155610c85565b610c7160075461065c6006548461195490919063ffffffff16565b336000908152602860205260409020600701555b33600090815260286020526040812042600682015560058101919091556004810182905560010154610cb79082611a21565b336000908152602860209081526040808320600101939093556001600160a01b0385168252602a8152828220600954835290522054610cf69082611a21565b6001600160a01b0383166000908152602a602090815260408083206009548452909152902055610d2582611a80565b50610d303382611e70565b610d68610d4d606461065c6004548561195490919063ffffffff16565b60095460009081526027602052604090206003015490611a21565b600954600090815260276020526040902060030155600754600554610db791610d9c916103e89161065c9182908790611954565b60095460009081526027602052604090206004015490611a21565b600954600090815260276020526040812060040191909155546002546001600160a01b039091169081906108fc90610df79060649061065c908790611954565b6040518115909202916000818181858888f19350505050158015610e1f573d6000803e3d6000fd5b5060095460009081526027602052604090206001015442118015610e58575060095460009081526027602052604090206002015460ff16155b15610e6557610e65612070565b604051829033907f1c58ec20c926cc585eaf181eaf11cb4eb553acc2fda2d960f36b962c17e8e75390600090a3505050505050565b600f8160048110610eaa57600080fd5b6002020180546001909101549091506001600160a01b031682565b6000546001600160a01b03163314610eef5760405162461bcd60e51b815260040161073f90612a28565b600080546040516001600160a01b03909116914780156108fc02929091818181858888f19350505050158015610f29573d6000803e3d6000fd5b50565b6000546001600160a01b03163314610f565760405162461bcd60e51b815260040161073f90612a28565b600180546001600160a01b0319166001600160a01b0392909216919091179055565b6001600160a01b0381166000908152602860205260408120600701548015611049576001600160a01b038316600090815260286020526040902060058101546006909101546064906201518090610fcf9042612a4c565b610fd99190612a5f565b6001600160a01b038616600090815260286020526040902060040154610fff9190612a73565b6110099190612a5f565b6110139190612a4c565b6001600160a01b038416600090815260286020526040902060050154909250819061103f908490612a8a565b1115611049578091505b50919050565b3360009081526028602052604090205461106857600080fd5b6040516336d30e8f60e11b81523360048201526000903090636da61d1e90602401602060405180830381865afa1580156110a6573d6000803e3d6000fd5b505050506040513d601f19601f820116820180604052508101906110ca9190612a9d565b336000908152602860205260409020600701549091506111225760405162461bcd60e51b81526020600482015260136024820152724c696d6974206e6f7420617661696c61626c6560681b604482015260640161073f565b80156111b057336000908152602860205260409020600701548111156111575750336000908152602860205260409020600701545b3360009081526028602052604081206005018054839290611179908490612a8a565b909155505033600090815260286020526040812060070180548392906111a0908490612a4c565b909155506111b09050338261219b565b33600090815260286020526040902060070154158015906111e257503360009081526028602052604090206002015415155b1561127a57336000908152602860205260409020600281015460079091015481111561121d5750336000908152602860205260409020600701545b336000908152602860205260408120600201805483929061123f908490612a4c565b90915550503360009081526028602052604081206007018054839290611266908490612a4c565b9091555061127690508183612a8a565b9150505b33600090815260286020526040902060070154158015906112ac57503360009081526028602052604090206008015415155b156113445733600090815260286020526040902060088101546007909101548111156112e75750336000908152602860205260409020600701545b3360009081526028602052604081206008018054839290611309908490612a4c565b90915550503360009081526028602052604081206007018054839290611330908490612a4c565b9091555061134090508183612a8a565b9150505b336000908152602860205260409020600701541580159061137657503360009081526028602052604090206003015415155b1561140e5733600090815260286020526040902060038101546007909101548111156113b15750336000908152602860205260409020600701545b33600090815260286020526040812060030180548392906113d3908490612a4c565b909155505033600090815260286020526040812060070180548392906113fa908490612a4c565b9091555061140a90508183612a8a565b9150505b33600090815260286020526040902060070154158015906114405750336000908152602860205260409020600c015415155b156114d857336000908152602860205260409020600c81015460079091015481111561147b5750336000908152602860205260409020600701545b336000908152602860205260408120600c01805483929061149d908490612a4c565b909155505033600090815260286020526040812060070180548392906114c4908490612a4c565b909155506114d490508183612a8a565b9150505b336000908152602860205260409020600701541580159061150a5750336000908152602860205260409020600d015415155b156115a257336000908152602860205260409020600d8101546007909101548111156115455750336000908152602860205260409020600701545b336000908152602860205260408120600d018054839290611567908490612a4c565b9091555050336000908152602860205260408120600701805483929061158e908490612a4c565b9091555061159e90508183612a8a565b9150505b600081116115e05760405162461bcd60e51b815260206004820152600b60248201526a16995c9bc81c185e5bdd5d60aa1b604482015260640161073f565b33600090815260296020526040812080548392906115ff908490612a8a565b9250508190555080600860008282546116189190612a8a565b90915550506040513390819083156108fc029084906000818181858888f1935050505015801561164c573d6000803e3d6000fd5b506040514290839033907f3f5274d9edd3b530545223adc84dcf865f2433783bc200984750bd356af5725390600090a45050565b60178160048110610eaa57600080fd5b601f81600481106116a057600080fd5b0154905081565b6000546001600160a01b031633146116d15760405162461bcd60e51b815260040161073f90612a28565b6116d9612070565b565b602381815481106116eb57600080fd5b6000918252602090912001546001600160a01b0316905081565b6000546001600160a01b0316331461172f5760405162461bcd60e51b815260040161073f90612a28565b600080546001600160a01b0319166001600160a01b0392909216919091179055565b6001600160a01b038083166000908152602860205260408120600a0154909116905b600581101561194e576001600160a01b038216156119205780600003611846576117c86117a6606461065c866014611954565b6001600160a01b0384166000908152602860205260409020600d015490611a21565b6001600160a01b0383166000908152602860205260409020600d01556117f4606461065c856014611954565b826001600160a01b0316856001600160a01b03167f0ff6805339adff6f01c911789fd9e3b33f71e1db51f16375f93808cdd8f13bea4260405161183991815260200190565b60405180910390a4611925565b806001036118b5576001600160a01b0382166000908152602860205260409020600901546002116118b0576118846117a6606461065c86600a611954565b6001600160a01b0383166000908152602860205260409020600d01556117f4606461065c85600a611954565b611925565b6118c0816001612a8a565b6001600160a01b038316600090815260286020526040902060090154106118b0576118f46117a6606461065c866005611954565b6001600160a01b0383166000908152602860205260409020600d01556117f4606461065c856005611954565b61194e565b6001600160a01b039182166000908152602860205260409020600a015490911690600101611773565b50505050565b600082600003611966575060006119d9565b60006119728385612a73565b90508261197f8583612a5f565b146119d65760405162461bcd60e51b815260206004820152602160248201527f536166654d6174683a206d756c7469706c69636174696f6e206f766572666c6f6044820152607760f81b606482015260840161073f565b90505b92915050565b60006119d683836040518060400160405280601a81526020017f536166654d6174683a206469766973696f6e206279207a65726f0000000000008152506124aa565b600080611a2e8385612a8a565b9050838110156119d65760405162461bcd60e51b815260206004820152601b60248201527f536166654d6174683a206164646974696f6e206f766572666c6f770000000000604482015260640161073f565b60006001600160a01b038216611a9857506000919050565b6001600160a01b0382166000908152602a6020908152604080832060095484529091529020546015548111611ad05750600092915050565b601054600f546012546011546014546013546001600160a01b0395861695938416939091169084871115611d17576010546001600160a01b038a8116911603611b2d5786600f60005b600202015550600198975050505050505050565b6012546001600160a01b038a8116911603611b8c57601080546001600160a01b0319166001600160a01b038b1617905586600f60006002020155601280546001600160a01b0319166001600160a01b03881617905584600f6001611b19565b6014546001600160a01b038a8116911603611c4757601080546001600160a01b0319166001600160a01b038b1617905586600f60006002020155601280546001600160a01b0319166001600160a01b03881617905584600f60015b600202016000018190555083600f600260048110611c0757611c07612ab6565b6002020160010160006101000a8154816001600160a01b0302191690836001600160a01b0316021790555082600f600260048110611b1957611b19612ab6565b601080546001600160a01b0319166001600160a01b038b1617905586600f60006002020155601280546001600160a01b0319166001600160a01b03881617905584600f60015b600202016000018190555083600f600260048110611cad57611cad612ab6565b6002020160010160006101000a8154816001600160a01b0302191690836001600160a01b0316021790555082600f600260048110611ced57611ced612ab6565b6002020155601680546001600160a01b0319166001600160a01b03841617905580600f6003611b19565b601154871115611d9f576012546001600160a01b038a8116911603611d405786600f6001611b19565b6014546001600160a01b038a8116911603611d7a57601280546001600160a01b0319166001600160a01b038b1617905586600f6001611be7565b601280546001600160a01b0319166001600160a01b038b1617905586600f6001611c8d565b601354871115611e16576014546001600160a01b038a8116911603611dc85786600f6002611b19565b601480546001600160a01b0319166001600160a01b038b1617905586600f600280020155601680546001600160a01b0319166001600160a01b03841617905580600f60036002020155611e64565b601554871115611e64576016546001600160a01b038a8116911603611e3f5786600f6003611b19565b601680546001600160a01b0319166001600160a01b038b1617905586600f6003611b19565b50505050505050919050565b6001600160a01b038083166000908152602860205260408120600a0154909116905b600581101561194e576001600160a01b038216156119205780600003611f6657611ee7611ec5606461065c86600a611954565b6001600160a01b03841660009081526028602052604090206002015490611a21565b6001600160a01b038316600090815260286020526040902060020155611f13606461065c85600a611954565b826001600160a01b0316856001600160a01b03167fe8a8de0c33658c3de38a3892af2c86397248fb25ae303545885fd8775df213176001604051611f5991815260200190565b60405180910390a4612047565b80600103611fdc576001600160a01b038216600090815260286020526040902060090154600211611fd757611fa4611ec5606461065c866002611954565b6001600160a01b0383166000908152602860205260409020600290810191909155611f139060649061065c908690611954565b612047565b611fe7816001612a8a565b6001600160a01b038316600090815260286020526040902060090154106120475761201b611ec5606461065c866001611954565b6001600160a01b038316600090815260286020526040902060020155611f13606461065c856001611954565b6001600160a01b039182166000908152602860205260409020600a015490911690600101611e92565b60095460008181526027602052604090206003015464174876e800811061215c576000828152602760205260408120600201805460ff191660011790556120b56124e1565b602354909150156120c8576120c86127b9565b600954600090815260276020526040902060040154836120e781612a0f565b6009805491965090915060006120fc83612a0f565b9091555050600084815260276020526040902042908190556003546121219190611a21565b60008581526027602052604090206001015561213d83836128e7565b6000858152602760205260409020600381019190915560040155505050565b6000828152602760205260409020429081905560035461217c9190611a21565b6000928352602760205260409092206001810192909255600390910155565b6001600160a01b038083166000908152602860205260408120600a0154909116905b601481101561194e576001600160a01b038216156119205780600003612291576122126121f0606461065c86601e611954565b6001600160a01b03841660009081526028602052604090206003015490611a21565b6001600160a01b03831660009081526028602052604090206003015561223e606461065c85601e611954565b826001600160a01b0316856001600160a01b03167fe8a8de0c33658c3de38a3892af2c86397248fb25ae303545885fd8775df21317600260405161228491815260200190565b60405180910390a4612481565b6000811180156122a15750600581105b15612316576122b1816001612a8a565b6001600160a01b03831660009081526028602052604090206009015410612311576122e56121f0606461065c86600a611954565b6001600160a01b03831660009081526028602052604090206003015561223e606461065c85600a611954565b612481565b6004811180156123265750600a81105b1561239657612336816001612a8a565b6001600160a01b038316600090815260286020526040902060090154106123115761236a6121f0606461065c866008611954565b6001600160a01b03831660009081526028602052604090206003015561223e606461065c856008611954565b6009811180156123a65750600f81105b15612416576123b6816001612a8a565b6001600160a01b03831660009081526028602052604090206009015410612311576123ea6121f0606461065c866005611954565b6001600160a01b03831660009081526028602052604090206003015561223e606461065c856005611954565b612421816001612a8a565b6001600160a01b03831660009081526028602052604090206009015410612481576124556121f0606461065c866001611954565b6001600160a01b03831660009081526028602052604090206003015561223e606461065c856001611954565b6001600160a01b039182166000908152602860205260409020600a0154909116906001016121bd565b600081836124cb5760405162461bcd60e51b815260040161073f9190612acc565b5060006124d88486612a5f565b95945050505050565b600954600090815260276020526040812060030154819061250a9060649061065c90600a611954565b90506000805b60048110156127b2576000600f826004811061252e5761252e612ab6565b60020201600101546001600160a01b0316146127a5576125ad61256b606461065c600b856004811061256257612562612ab6565b01548790611954565b60286000600f856004811061258257612582612ab6565b60020201600101546001600160a01b0316815260208101919091526040016000206008015490611a21565b60286000600f84600481106125c4576125c4612ab6565b60020201600101546001600160a01b0316815260208101919091526040016000206008015561260e612607606461065c600b856004811061256257612562612ab6565b8390611a21565b9150612634606461065c600b846004811061262b5761262b612ab6565b01548690611954565b600f826004811061264757612647612ab6565b60020201600101546040516001600160a01b03909116907f253871ee597f4c36a5bfe1659499041a734f154acc85ca011a1c97c803c06eeb90600090a3600f816004811061269757612697612ab6565b60020201600101546001600160a01b0316601782600481106126bb576126bb612ab6565b6002020160010160006101000a8154816001600160a01b0302191690836001600160a01b03160217905550600f81600481106126f9576126f9612ab6565b60020201546017826004811061271157612711612ab6565b6002020155612731606461065c600b846004811061262b5761262b612ab6565b601f826004811061274457612744612ab6565b01556000600f826004811061275b5761275b612ab6565b6002020160010160006101000a8154816001600160a01b0302191690836001600160a01b031602179055506000600f826004811061279b5761279b612ab6565b60020201556127aa565b6127b2565b600101612510565b5092915050565b6023546009546000908152602760205260408120600401546127db90836119df565b905060005b828110156128cd5761283182602860006023858154811061280357612803612ab6565b60009182526020808320909101546001600160a01b031683528201929092526040019020600c015490611a21565b602860006023848154811061284857612848612ab6565b60009182526020808320909101546001600160a01b031683528201929092526040019020600c015560238054429184918490811061288857612888612ab6565b60009182526020822001546040516001600160a01b03909116917f0e782082c08603061e86365d8b6a1492565e318e01d97e46f80945c58db78bf791a46001016127e0565b505060095460009081526027602052604081206004015550565b60006119d683836040518060400160405280601e81526020017f536166654d6174683a207375627472616374696f6e206f766572666c6f770000815250600081848411156129485760405162461bcd60e51b815260040161073f9190612acc565b5060006124d88486612a4c565b60006020828403121561296757600080fd5b5035919050565b80356001600160a01b038116811461298557600080fd5b919050565b60006020828403121561299c57600080fd5b6119d68261296e565b600080604083850312156129b857600080fd5b6129c18361296e565b946020939093013593505050565b634e487b7160e01b600052601260045260246000fd5b6000826129f4576129f46129cf565b500690565b634e487b7160e01b600052601160045260246000fd5b600060018201612a2157612a216129f9565b5060010190565b6020808252600a908201526937b7363c9027bbb732b960b11b604082015260600190565b818103818111156119d9576119d96129f9565b600082612a6e57612a6e6129cf565b500490565b80820281158282048414176119d9576119d96129f9565b808201808211156119d9576119d96129f9565b600060208284031215612aaf57600080fd5b5051919050565b634e487b7160e01b600052603260045260246000fd5b602081526000825180602084015260005b81811015612afa5760208186018101516040868401015201612add565b506000604082850101526040601f19601f8301168401019150509291505056fea26469706673582212208c6740d4571ef72e237585f3a793280d471356fc79dfc5bd73dbc8fc0d358a0764736f6c634300081b0033",
  "linkReferences": {},
  "deployedLinkReferences": {}
}